{"abi":[{"type":"constructor","inputs":[{"name":"_groupID","type":"uint256","internalType":"uint256"},{"name":"_worldIdRouter","type":"address","internalType":"contract IWorldIDRouter"},{"name":"_appId","type":"string","internalType":"string"},{"name":"_quorumThreshold","type":"uint256","internalType":"uint256"},{"name":"_initialVotingDelay","type":"uint48","internalType":"uint48"},{"name":"_initialVotingPeriod","type":"uint32","internalType":"uint32"},{"name":"_initialProposalThreshold","type":"uint256","internalType":"uint256"},{"name":"_rootExpirationThreshold","type":"uint256","internalType":"uint256"}],"stateMutability":"nonpayable"},{"type":"receive","stateMutability":"payable"},{"type":"function","name":"APP_ID_HASH","inputs":[],"outputs":[{"name":"","type":"uint256","internalType":"uint256"}],"stateMutability":"view"},{"type":"function","name":"BALLOT_TYPEHASH","inputs":[],"outputs":[{"name":"","type":"bytes32","internalType":"bytes32"}],"stateMutability":"view"},{"type":"function","name":"CLOCK_MODE","inputs":[],"outputs":[{"name":"_mode","type":"string","internalType":"string"}],"stateMutability":"pure"},{"type":"function","name":"COUNTING_MODE","inputs":[],"outputs":[{"name":"","type":"string","internalType":"string"}],"stateMutability":"pure"},{"type":"function","name":"EXTENDED_BALLOT_TYPEHASH","inputs":[],"outputs":[{"name":"","type":"bytes32","internalType":"bytes32"}],"stateMutability":"view"},{"type":"function","name":"GROUP_ID","inputs":[],"outputs":[{"name":"","type":"uint256","internalType":"uint256"}],"stateMutability":"view"},{"type":"function","name":"ONE_VOTE","inputs":[],"outputs":[{"name":"","type":"uint256","internalType":"uint256"}],"stateMutability":"view"},{"type":"function","name":"WORLD_ID_ROUTER","inputs":[],"outputs":[{"name":"","type":"address","internalType":"contract IWorldIDRouter"}],"stateMutability":"view"},{"type":"function","name":"appId","inputs":[],"outputs":[{"name":"","type":"string","internalType":"string"}],"stateMutability":"view"},{"type":"function","name":"cancel","inputs":[{"name":"targets","type":"address[]","internalType":"address[]"},{"name":"values","type":"uint256[]","internalType":"uint256[]"},{"name":"calldatas","type":"bytes[]","internalType":"bytes[]"},{"name":"descriptionHash","type":"bytes32","internalType":"bytes32"}],"outputs":[{"name":"","type":"uint256","internalType":"uint256"}],"stateMutability":"nonpayable"},{"type":"function","name":"castVote","inputs":[{"name":"proposalId","type":"uint256","internalType":"uint256"},{"name":"support","type":"uint8","internalType":"uint8"}],"outputs":[{"name":"","type":"uint256","internalType":"uint256"}],"stateMutability":"nonpayable"},{"type":"function","name":"castVoteBySig","inputs":[{"name":"proposalId","type":"uint256","internalType":"uint256"},{"name":"support","type":"uint8","internalType":"uint8"},{"name":"voter","type":"address","internalType":"address"},{"name":"signature","type":"bytes","internalType":"bytes"}],"outputs":[{"name":"","type":"uint256","internalType":"uint256"}],"stateMutability":"nonpayable"},{"type":"function","name":"castVoteWithReason","inputs":[{"name":"proposalId","type":"uint256","internalType":"uint256"},{"name":"support","type":"uint8","internalType":"uint8"},{"name":"reason","type":"string","internalType":"string"}],"outputs":[{"name":"","type":"uint256","internalType":"uint256"}],"stateMutability":"nonpayable"},{"type":"function","name":"castVoteWithReasonAndParams","inputs":[{"name":"proposalId","type":"uint256","internalType":"uint256"},{"name":"support","type":"uint8","internalType":"uint8"},{"name":"reason","type":"string","internalType":"string"},{"name":"params","type":"bytes","internalType":"bytes"}],"outputs":[{"name":"","type":"uint256","internalType":"uint256"}],"stateMutability":"nonpayable"},{"type":"function","name":"castVoteWithReasonAndParamsBySig","inputs":[{"name":"proposalId","type":"uint256","internalType":"uint256"},{"name":"support","type":"uint8","internalType":"uint8"},{"name":"voter","type":"address","internalType":"address"},{"name":"reason","type":"string","internalType":"string"},{"name":"params","type":"bytes","internalType":"bytes"},{"name":"signature","type":"bytes","internalType":"bytes"}],"outputs":[{"name":"","type":"uint256","internalType":"uint256"}],"stateMutability":"nonpayable"},{"type":"function","name":"checkConfigValidity","inputs":[{"name":"_votingPeriod","type":"uint32","internalType":"uint32"},{"name":"_resetGracePeriod","type":"uint256","internalType":"uint256"},{"name":"_rootExpirationThreshold","type":"uint256","internalType":"uint256"}],"outputs":[],"stateMutability":"view"},{"type":"function","name":"checkVoteValidity","inputs":[{"name":"_support","type":"uint8","internalType":"uint8"},{"name":"_proposalId","type":"uint256","internalType":"uint256"},{"name":"_proofData","type":"bytes","internalType":"bytes"}],"outputs":[{"name":"_nullifierHash","type":"uint256","internalType":"uint256"}],"stateMutability":"nonpayable"},{"type":"function","name":"clock","inputs":[],"outputs":[{"name":"_clock","type":"uint48","internalType":"uint48"}],"stateMutability":"view"},{"type":"function","name":"eip712Domain","inputs":[],"outputs":[{"name":"fields","type":"bytes1","internalType":"bytes1"},{"name":"name","type":"string","internalType":"string"},{"name":"version","type":"string","internalType":"string"},{"name":"chainId","type":"uint256","internalType":"uint256"},{"name":"verifyingContract","type":"address","internalType":"address"},{"name":"salt","type":"bytes32","internalType":"bytes32"},{"name":"extensions","type":"uint256[]","internalType":"uint256[]"}],"stateMutability":"view"},{"type":"function","name":"execute","inputs":[{"name":"targets","type":"address[]","internalType":"address[]"},{"name":"values","type":"uint256[]","internalType":"uint256[]"},{"name":"calldatas","type":"bytes[]","internalType":"bytes[]"},{"name":"descriptionHash","type":"bytes32","internalType":"bytes32"}],"outputs":[{"name":"","type":"uint256","internalType":"uint256"}],"stateMutability":"payable"},{"type":"function","name":"getVotes","inputs":[{"name":"account","type":"address","internalType":"address"},{"name":"timepoint","type":"uint256","internalType":"uint256"}],"outputs":[{"name":"","type":"uint256","internalType":"uint256"}],"stateMutability":"view"},{"type":"function","name":"getVotesWithParams","inputs":[{"name":"account","type":"address","internalType":"address"},{"name":"timepoint","type":"uint256","internalType":"uint256"},{"name":"params","type":"bytes","internalType":"bytes"}],"outputs":[{"name":"","type":"uint256","internalType":"uint256"}],"stateMutability":"view"},{"type":"function","name":"hasVoted","inputs":[{"name":"proposalId","type":"uint256","internalType":"uint256"},{"name":"account","type":"address","internalType":"address"}],"outputs":[{"name":"","type":"bool","internalType":"bool"}],"stateMutability":"view"},{"type":"function","name":"hashProposal","inputs":[{"name":"targets","type":"address[]","internalType":"address[]"},{"name":"values","type":"uint256[]","internalType":"uint256[]"},{"name":"calldatas","type":"bytes[]","internalType":"bytes[]"},{"name":"descriptionHash","type":"bytes32","internalType":"bytes32"}],"outputs":[{"name":"","type":"uint256","internalType":"uint256"}],"stateMutability":"pure"},{"type":"function","name":"name","inputs":[],"outputs":[{"name":"","type":"string","internalType":"string"}],"stateMutability":"view"},{"type":"function","name":"nonces","inputs":[{"name":"owner","type":"address","internalType":"address"}],"outputs":[{"name":"","type":"uint256","internalType":"uint256"}],"stateMutability":"view"},{"type":"function","name":"nullifierHashes","inputs":[{"name":"_nullifierHash","type":"uint256","internalType":"uint256"}],"outputs":[{"name":"_isUsed","type":"bool","internalType":"bool"}],"stateMutability":"view"},{"type":"function","name":"onERC1155BatchReceived","inputs":[{"name":"","type":"address","internalType":"address"},{"name":"","type":"address","internalType":"address"},{"name":"","type":"uint256[]","internalType":"uint256[]"},{"name":"","type":"uint256[]","internalType":"uint256[]"},{"name":"","type":"bytes","internalType":"bytes"}],"outputs":[{"name":"","type":"bytes4","internalType":"bytes4"}],"stateMutability":"nonpayable"},{"type":"function","name":"onERC1155Received","inputs":[{"name":"","type":"address","internalType":"address"},{"name":"","type":"address","internalType":"address"},{"name":"","type":"uint256","internalType":"uint256"},{"name":"","type":"uint256","internalType":"uint256"},{"name":"","type":"bytes","internalType":"bytes"}],"outputs":[{"name":"","type":"bytes4","internalType":"bytes4"}],"stateMutability":"nonpayable"},{"type":"function","name":"onERC721Received","inputs":[{"name":"","type":"address","internalType":"address"},{"name":"","type":"address","internalType":"address"},{"name":"","type":"uint256","internalType":"uint256"},{"name":"","type":"bytes","internalType":"bytes"}],"outputs":[{"name":"","type":"bytes4","internalType":"bytes4"}],"stateMutability":"nonpayable"},{"type":"function","name":"owner","inputs":[],"outputs":[{"name":"","type":"address","internalType":"address"}],"stateMutability":"view"},{"type":"function","name":"proposalDeadline","inputs":[{"name":"proposalId","type":"uint256","internalType":"uint256"}],"outputs":[{"name":"","type":"uint256","internalType":"uint256"}],"stateMutability":"view"},{"type":"function","name":"proposalEta","inputs":[{"name":"proposalId","type":"uint256","internalType":"uint256"}],"outputs":[{"name":"","type":"uint256","internalType":"uint256"}],"stateMutability":"view"},{"type":"function","name":"proposalNeedsQueuing","inputs":[{"name":"","type":"uint256","internalType":"uint256"}],"outputs":[{"name":"","type":"bool","internalType":"bool"}],"stateMutability":"view"},{"type":"function","name":"proposalProposer","inputs":[{"name":"proposalId","type":"uint256","internalType":"uint256"}],"outputs":[{"name":"","type":"address","internalType":"address"}],"stateMutability":"view"},{"type":"function","name":"proposalSnapshot","inputs":[{"name":"proposalId","type":"uint256","internalType":"uint256"}],"outputs":[{"name":"","type":"uint256","internalType":"uint256"}],"stateMutability":"view"},{"type":"function","name":"proposalThreshold","inputs":[],"outputs":[{"name":"_proposalThreshold","type":"uint256","internalType":"uint256"}],"stateMutability":"view"},{"type":"function","name":"proposalUniquenessSalt","inputs":[],"outputs":[{"name":"","type":"string","internalType":"string"}],"stateMutability":"view"},{"type":"function","name":"proposalVotes","inputs":[{"name":"proposalId","type":"uint256","internalType":"uint256"}],"outputs":[{"name":"againstVotes","type":"uint256","internalType":"uint256"},{"name":"forVotes","type":"uint256","internalType":"uint256"},{"name":"abstainVotes","type":"uint256","internalType":"uint256"}],"stateMutability":"view"},{"type":"function","name":"proposalsQuorumThreshold","inputs":[{"name":"proposalId","type":"uint256","internalType":"uint256"}],"outputs":[{"name":"quorumThreshold","type":"uint256","internalType":"uint256"}],"stateMutability":"view"},{"type":"function","name":"propose","inputs":[{"name":"_targets","type":"address[]","internalType":"address[]"},{"name":"_values","type":"uint256[]","internalType":"uint256[]"},{"name":"_calldatas","type":"bytes[]","internalType":"bytes[]"},{"name":"_description","type":"string","internalType":"string"}],"outputs":[{"name":"_proposalId","type":"uint256","internalType":"uint256"}],"stateMutability":"nonpayable"},{"type":"function","name":"queue","inputs":[{"name":"targets","type":"address[]","internalType":"address[]"},{"name":"values","type":"uint256[]","internalType":"uint256[]"},{"name":"calldatas","type":"bytes[]","internalType":"bytes[]"},{"name":"descriptionHash","type":"bytes32","internalType":"bytes32"}],"outputs":[{"name":"","type":"uint256","internalType":"uint256"}],"stateMutability":"nonpayable"},{"type":"function","name":"quorum","inputs":[{"name":"","type":"uint256","internalType":"uint256"}],"outputs":[{"name":"_quorumThreshold","type":"uint256","internalType":"uint256"}],"stateMutability":"view"},{"type":"function","name":"quorumThreshold","inputs":[],"outputs":[{"name":"","type":"uint256","internalType":"uint256"}],"stateMutability":"view"},{"type":"function","name":"relay","inputs":[{"name":"target","type":"address","internalType":"address"},{"name":"value","type":"uint256","internalType":"uint256"},{"name":"data","type":"bytes","internalType":"bytes"}],"outputs":[],"stateMutability":"payable"},{"type":"function","name":"renounceOwnership","inputs":[],"outputs":[],"stateMutability":"nonpayable"},{"type":"function","name":"resetGracePeriod","inputs":[],"outputs":[{"name":"","type":"uint256","internalType":"uint256"}],"stateMutability":"view"},{"type":"function","name":"rootExpirationThreshold","inputs":[],"outputs":[{"name":"","type":"uint256","internalType":"uint256"}],"stateMutability":"view"},{"type":"function","name":"setConfig","inputs":[{"name":"_newVotingPeriod","type":"uint32","internalType":"uint32"},{"name":"_newResetGracePeriod","type":"uint256","internalType":"uint256"},{"name":"_newRootExpirationThreshold","type":"uint256","internalType":"uint256"}],"outputs":[],"stateMutability":"nonpayable"},{"type":"function","name":"setProposalThreshold","inputs":[{"name":"newProposalThreshold","type":"uint256","internalType":"uint256"}],"outputs":[],"stateMutability":"nonpayable"},{"type":"function","name":"setQuorum","inputs":[{"name":"_newQuorumThreshold","type":"uint256","internalType":"uint256"}],"outputs":[],"stateMutability":"nonpayable"},{"type":"function","name":"setVotingDelay","inputs":[{"name":"newVotingDelay","type":"uint48","internalType":"uint48"}],"outputs":[],"stateMutability":"nonpayable"},{"type":"function","name":"setVotingDelayOwner","inputs":[{"name":"_newVotingDelay","type":"uint48","internalType":"uint48"}],"outputs":[],"stateMutability":"nonpayable"},{"type":"function","name":"setVotingPeriod","inputs":[{"name":"_newVotingPeriod","type":"uint32","internalType":"uint32"}],"outputs":[],"stateMutability":"nonpayable"},{"type":"function","name":"setVotingPeriodOwner","inputs":[{"name":"_newVotingPeriod","type":"uint32","internalType":"uint32"}],"outputs":[],"stateMutability":"nonpayable"},{"type":"function","name":"state","inputs":[{"name":"proposalId","type":"uint256","internalType":"uint256"}],"outputs":[{"name":"","type":"uint8","internalType":"enum IGovernor.ProposalState"}],"stateMutability":"view"},{"type":"function","name":"supportsInterface","inputs":[{"name":"interfaceId","type":"bytes4","internalType":"bytes4"}],"outputs":[{"name":"","type":"bool","internalType":"bool"}],"stateMutability":"view"},{"type":"function","name":"transferOwnership","inputs":[{"name":"newOwner","type":"address","internalType":"address"}],"outputs":[],"stateMutability":"nonpayable"},{"type":"function","name":"version","inputs":[],"outputs":[{"name":"","type":"string","internalType":"string"}],"stateMutability":"view"},{"type":"function","name":"votingDelay","inputs":[],"outputs":[{"name":"_votingDelay","type":"uint256","internalType":"uint256"}],"stateMutability":"view"},{"type":"function","name":"votingPeriod","inputs":[],"outputs":[{"name":"_votingPeriod","type":"uint256","internalType":"uint256"}],"stateMutability":"view"},{"type":"event","name":"EIP712DomainChanged","inputs":[],"anonymous":false},{"type":"event","name":"OwnershipTransferred","inputs":[{"name":"previousOwner","type":"address","indexed":true,"internalType":"address"},{"name":"newOwner","type":"address","indexed":true,"internalType":"address"}],"anonymous":false},{"type":"event","name":"ProposalCanceled","inputs":[{"name":"proposalId","type":"uint256","indexed":false,"internalType":"uint256"}],"anonymous":false},{"type":"event","name":"ProposalCreated","inputs":[{"name":"proposalId","type":"uint256","indexed":false,"internalType":"uint256"},{"name":"proposer","type":"address","indexed":false,"internalType":"address"},{"name":"targets","type":"address[]","indexed":false,"internalType":"address[]"},{"name":"values","type":"uint256[]","indexed":false,"internalType":"uint256[]"},{"name":"signatures","type":"string[]","indexed":false,"internalType":"string[]"},{"name":"calldatas","type":"bytes[]","indexed":false,"internalType":"bytes[]"},{"name":"voteStart","type":"uint256","indexed":false,"internalType":"uint256"},{"name":"voteEnd","type":"uint256","indexed":false,"internalType":"uint256"},{"name":"description","type":"string","indexed":false,"internalType":"string"}],"anonymous":false},{"type":"event","name":"ProposalExecuted","inputs":[{"name":"proposalId","type":"uint256","indexed":false,"internalType":"uint256"}],"anonymous":false},{"type":"event","name":"ProposalQueued","inputs":[{"name":"proposalId","type":"uint256","indexed":false,"internalType":"uint256"},{"name":"etaSeconds","type":"uint256","indexed":false,"internalType":"uint256"}],"anonymous":false},{"type":"event","name":"ProposalThresholdSet","inputs":[{"name":"oldProposalThreshold","type":"uint256","indexed":false,"internalType":"uint256"},{"name":"newProposalThreshold","type":"uint256","indexed":false,"internalType":"uint256"}],"anonymous":false},{"type":"event","name":"QuorumSet","inputs":[{"name":"_oldQuorumThreshold","type":"uint256","indexed":false,"internalType":"uint256"},{"name":"_newQuorumThreshold","type":"uint256","indexed":false,"internalType":"uint256"}],"anonymous":false},{"type":"event","name":"ResetGracePeriodSet","inputs":[{"name":"_oldResetGracePeriod","type":"uint256","indexed":false,"internalType":"uint256"},{"name":"_newResetGracePeriod","type":"uint256","indexed":false,"internalType":"uint256"}],"anonymous":false},{"type":"event","name":"RootExpirationThresholdSet","inputs":[{"name":"_oldRootExpirationThreshold","type":"uint256","indexed":false,"internalType":"uint256"},{"name":"_newRootExpirationThreshold","type":"uint256","indexed":false,"internalType":"uint256"}],"anonymous":false},{"type":"event","name":"VoteCast","inputs":[{"name":"voter","type":"address","indexed":true,"internalType":"address"},{"name":"proposalId","type":"uint256","indexed":false,"internalType":"uint256"},{"name":"support","type":"uint8","indexed":false,"internalType":"uint8"},{"name":"weight","type":"uint256","indexed":false,"internalType":"uint256"},{"name":"reason","type":"string","indexed":false,"internalType":"string"}],"anonymous":false},{"type":"event","name":"VoteCastWithParams","inputs":[{"name":"voter","type":"address","indexed":true,"internalType":"address"},{"name":"proposalId","type":"uint256","indexed":false,"internalType":"uint256"},{"name":"support","type":"uint8","indexed":false,"internalType":"uint8"},{"name":"weight","type":"uint256","indexed":false,"internalType":"uint256"},{"name":"reason","type":"string","indexed":false,"internalType":"string"},{"name":"params","type":"bytes","indexed":false,"internalType":"bytes"}],"anonymous":false},{"type":"event","name":"VotingDelaySet","inputs":[{"name":"oldVotingDelay","type":"uint256","indexed":false,"internalType":"uint256"},{"name":"newVotingDelay","type":"uint256","indexed":false,"internalType":"uint256"}],"anonymous":false},{"type":"event","name":"VotingPeriodSet","inputs":[{"name":"oldVotingPeriod","type":"uint256","indexed":false,"internalType":"uint256"},{"name":"newVotingPeriod","type":"uint256","indexed":false,"internalType":"uint256"}],"anonymous":false},{"type":"error","name":"FailedInnerCall","inputs":[]},{"type":"error","name":"GovernorAlreadyCastVote","inputs":[{"name":"voter","type":"address","internalType":"address"}]},{"type":"error","name":"GovernorAlreadyQueuedProposal","inputs":[{"name":"proposalId","type":"uint256","internalType":"uint256"}]},{"type":"error","name":"GovernorDisabledDeposit","inputs":[]},{"type":"error","name":"GovernorInsufficientProposerVotes","inputs":[{"name":"proposer","type":"address","internalType":"address"},{"name":"votes","type":"uint256","internalType":"uint256"},{"name":"threshold","type":"uint256","internalType":"uint256"}]},{"type":"error","name":"GovernorInvalidProposalLength","inputs":[{"name":"targets","type":"uint256","internalType":"uint256"},{"name":"calldatas","type":"uint256","internalType":"uint256"},{"name":"values","type":"uint256","internalType":"uint256"}]},{"type":"error","name":"GovernorInvalidSignature","inputs":[{"name":"voter","type":"address","internalType":"address"}]},{"type":"error","name":"GovernorInvalidVoteType","inputs":[]},{"type":"error","name":"GovernorInvalidVotingPeriod","inputs":[{"name":"votingPeriod","type":"uint256","internalType":"uint256"}]},{"type":"error","name":"GovernorNonexistentProposal","inputs":[{"name":"proposalId","type":"uint256","internalType":"uint256"}]},{"type":"error","name":"GovernorNotQueuedProposal","inputs":[{"name":"proposalId","type":"uint256","internalType":"uint256"}]},{"type":"error","name":"GovernorOnlyExecutor","inputs":[{"name":"account","type":"address","internalType":"address"}]},{"type":"error","name":"GovernorOnlyProposer","inputs":[{"name":"account","type":"address","internalType":"address"}]},{"type":"error","name":"GovernorQueueNotImplemented","inputs":[]},{"type":"error","name":"GovernorRestrictedProposer","inputs":[{"name":"proposer","type":"address","internalType":"address"}]},{"type":"error","name":"GovernorUnexpectedProposalState","inputs":[{"name":"proposalId","type":"uint256","internalType":"uint256"},{"name":"current","type":"uint8","internalType":"enum IGovernor.ProposalState"},{"name":"expectedStates","type":"bytes32","internalType":"bytes32"}]},{"type":"error","name":"GovernorWorldID_DuplicateNullifier","inputs":[]},{"type":"error","name":"GovernorWorldID_InvalidResetGracePeriod","inputs":[]},{"type":"error","name":"GovernorWorldID_InvalidRootExpirationThreshold","inputs":[]},{"type":"error","name":"GovernorWorldID_InvalidVotingPeriod","inputs":[]},{"type":"error","name":"GovernorWorldID_NotSupportedFunction","inputs":[]},{"type":"error","name":"GovernorWorldID_OutdatedRoot","inputs":[]},{"type":"error","name":"InvalidAccountNonce","inputs":[{"name":"account","type":"address","internalType":"address"},{"name":"currentNonce","type":"uint256","internalType":"uint256"}]},{"type":"error","name":"InvalidShortString","inputs":[]},{"type":"error","name":"OwnableInvalidOwner","inputs":[{"name":"owner","type":"address","internalType":"address"}]},{"type":"error","name":"OwnableUnauthorizedAccount","inputs":[{"name":"account","type":"address","internalType":"address"}]},{"type":"error","name":"QueueEmpty","inputs":[]},{"type":"error","name":"QueueFull","inputs":[]},{"type":"error","name":"SafeCastOverflowedUintDowncast","inputs":[{"name":"bits","type":"uint8","internalType":"uint8"},{"name":"value","type":"uint256","internalType":"uint256"}]},{"type":"error","name":"StringTooLong","inputs":[{"name":"str","type":"string","internalType":"string"}]},{"type":"error","name":"StringsInsufficientHexLength","inputs":[{"name":"value","type":"uint256","internalType":"uint256"},{"name":"length","type":"uint256","internalType":"uint256"}]}],"bytecode":{"object":"0x6101c0604052621258e0600c553480156200001957600080fd5b5060405162005c7338038062005c738339810160408190526200003c9162000acf565b8787878387878760405180604001604052806008815260200167476f61747344414f60c01b81525080620000756200026060201b60201c565b33806200009d57604051631e4fbdf760e01b8152600060048201526024015b60405180910390fd5b620000a8816200027b565b50620000b6826001620002cb565b61012052620000c7816002620002cb565b61014052815160208084019190912060e052815190820120610100524660a0526200015560e05161010051604080517f8b73c3c69bb8fe3d512ecc4cf759cc79239f7b179b0ffacaa9a75d522b39400f60208201529081019290925260608201524660808201523060a082015260009060c00160405160208183030381529060405280519060200120905090565b60805250503060c05260046200016c828262000c7a565b506200017a90508362000304565b62000185826200036a565b62000190816200040d565b5050506001600160a01b03831661016052610180849052600b620001b5838262000c7a565b50620001e382604051602001620001cd919062000d46565b60408051601f198184030181529190526200044e565b6101a052620001ff620001f562000485565b600c5483620004a6565b6200020a4662000591565b62000215306200062a565b6040516020016200022892919062000d64565b604051602081830303815290604052600e908162000247919062000c7a565b5050506010969096555062000f2a975050505050505050565b6040805180820190915260018152603160f81b602082015290565b600080546001600160a01b038381166001600160a01b0319831681178455604051919092169283917f8be0079c531659141344cd1fd0a4f28419497f9722a3daafe3b4186f6b6457e09190a35050565b6000602083511015620002eb57620002e38362000642565b9050620002fe565b81620002f8848262000c7a565b5060ff90505b92915050565b600a546040805165ffffffffffff928316815291831660208301527fc565b045403dc03c2eea82b81a0465edad9e2e7fc4d97e11421c209da93d7a93910160405180910390a1600a805465ffffffffffff191665ffffffffffff92909216919091179055565b8063ffffffff16600003620003965760405163f1cfbf0560e01b81526000600482015260240162000094565b600a546040805163ffffffff66010000000000009093048316815291831660208301527f7e3f7f0708a84de9203036abaa450dccc85ad5ff52f78c170f3edb55cf5e8828910160405180910390a1600a805463ffffffff90921666010000000000000263ffffffff60301b19909216919091179055565b60095460408051918252602082018390527fccb45da8d5717e6c4544694297c4ba5cf151d455c9bb0ed4fc7a38411bc05461910160405180910390a1600955565b600060088260405160200162000465919062000d46565b60408051601f198184030181529190528051602090910120901c92915050565b6000620004a1600a546601000000000000900463ffffffff1690565b905090565b81811115620004c757604051629cc70760e51b815260040160405180910390fd5b620004d483838362000685565b620004de62000485565b8363ffffffff1614620004f657620004f6836200036a565b600c548281146200054057600c83905560408051828152602081018590527f7639ecf0fefb1c8b5ec6131b472f3d4a936131e642a409d2e92764002c048797910160405180910390a15b600d548281146200058a57600d83905560408051828152602081018590527fc82be8d74b836742b3756abc5d3d2778136237291b3efdf7e1c246a13f49e9ce910160405180910390a15b5050505050565b60606000620005a083620007c3565b60010190506000816001600160401b03811115620005c257620005c262000a62565b6040519080825280601f01601f191660200182016040528015620005ed576020820181803683370190505b5090508181016020015b600019016f181899199a1a9b1b9c1cb0b131b232b360811b600a86061a8153600a8504945084620005f757509392505050565b6060620002fe6001600160a01b0383166014620008ac565b600080829050601f8151111562000670578260405163305a27a960e01b815260040162000094919062000e03565b80516200067d8262000e38565b179392505050565b80156200078c576101605161018051604051635df06cc360e11b815260048101919091526000916001600160a01b03169063bbe0d98690602401602060405180830381865afa158015620006dd573d6000803e3d6000fd5b505050506040513d601f19601f8201168201806040525081019062000703919062000e5d565b9050806001600160a01b031663b0d690796040518163ffffffff1660e01b8152600401602060405180830381865afa15801562000744573d6000803e3d6000fd5b505050506040513d601f19601f820116820180604052508101906200076a919062000e84565b8211156200078a57604051629cc70760e51b815260040160405180910390fd5b505b62000798818362000eb4565b8363ffffffff1610620007be5760405163541b41b160e01b815260040160405180910390fd5b505050565b6000807a184f03e93ff9f4daa797ed6e38ed64bf6a1f01000000000000000083106200080d577a184f03e93ff9f4daa797ed6e38ed64bf6a1f010000000000000000830492506040015b6d04ee2d6d415b85acef810000000083106200083a576d04ee2d6d415b85acef8100000000830492506020015b662386f26fc1000083106200085957662386f26fc10000830492506010015b6305f5e100831062000872576305f5e100830492506008015b61271083106200088757612710830492506004015b606483106200089a576064830492506002015b600a8310620002fe5760010192915050565b6060826000620008be84600262000eca565b620008cb90600262000ee4565b6001600160401b03811115620008e557620008e562000a62565b6040519080825280601f01601f19166020018201604052801562000910576020820181803683370190505b509050600360fc1b816000815181106200092e576200092e62000efa565b60200101906001600160f81b031916908160001a905350600f60fb1b8160018151811062000960576200096062000efa565b60200101906001600160f81b031916908160001a90535060006200098685600262000eca565b6200099390600162000ee4565b90505b600181111562000a15576f181899199a1a9b1b9c1cb0b131b232b360811b83600f1660108110620009cb57620009cb62000efa565b1a60f81b828281518110620009e457620009e462000efa565b60200101906001600160f81b031916908160001a90535060049290921c9162000a0d8162000f10565b905062000996565b50811562000a415760405163e22e27eb60e01b8152600481018690526024810185905260440162000094565b949350505050565b6001600160a01b038116811462000a5f57600080fd5b50565b634e487b7160e01b600052604160045260246000fd5b60005b8381101562000a9557818101518382015260200162000a7b565b50506000910152565b805165ffffffffffff8116811462000ab557600080fd5b919050565b805163ffffffff8116811462000ab557600080fd5b600080600080600080600080610100898b03121562000aed57600080fd5b88519750602089015162000b018162000a49565b60408a01519097506001600160401b038082111562000b1f57600080fd5b818b0191508b601f83011262000b3457600080fd5b81518181111562000b495762000b4962000a62565b604051601f8201601f19908116603f0116810190838211818310171562000b745762000b7462000a62565b816040528281528e602084870101111562000b8e57600080fd5b62000ba183602083016020880162000a78565b809a5050505050506060890151945062000bbe60808a0162000a9e565b935062000bce60a08a0162000aba565b60c08a015160e0909a0151989b979a5095989497939692505050565b600181811c9082168062000bff57607f821691505b60208210810362000c2057634e487b7160e01b600052602260045260246000fd5b50919050565b601f821115620007be576000816000526020600020601f850160051c8101602086101562000c515750805b601f850160051c820191505b8181101562000c725782815560010162000c5d565b505050505050565b81516001600160401b0381111562000c965762000c9662000a62565b62000cae8162000ca7845462000bea565b8462000c26565b602080601f83116001811462000ce6576000841562000ccd5750858301515b600019600386901b1c1916600185901b17855562000c72565b600085815260208120601f198616915b8281101562000d175788860151825594840194600190910190840162000cf6565b508582101562000d365787850151600019600388901b60f8161c191681555b5050505050600190811b01905550565b6000825162000d5a81846020870162000a78565b9190910192915050565b7f202323232050726f706f73616c20556e697175656e6573732053616c743a00008152700101690151521b430b4b71024a21d15151607d1b601e8201526000835162000db881602f85016020880162000a78565b7f202d202a2a436f6e747261637420416464726573733a2a2a2000000000000000602f91840191820152835162000df781604884016020880162000a78565b01604801949350505050565b602081526000825180602084015262000e2481604085016020870162000a78565b601f01601f19169190910160400192915050565b8051602080830151919081101562000c205760001960209190910360031b1b16919050565b60006020828403121562000e7057600080fd5b815162000e7d8162000a49565b9392505050565b60006020828403121562000e9757600080fd5b5051919050565b634e487b7160e01b600052601160045260246000fd5b81810381811115620002fe57620002fe62000e9e565b8082028115828204841417620002fe57620002fe62000e9e565b80820180821115620002fe57620002fe62000e9e565b634e487b7160e01b600052603260045260246000fd5b60008162000f225762000f2262000e9e565b506000190190565b60805160a05160c05160e05161010051610120516101405161016051610180516101a051614c9c62000fd760003960008181610d7a01526127f901526000818161070501528181611f9c015281816125160152612894015260008181610baf01528181611fc50152818161253f0152612865015260006124490152600061241c01526000612a7701526000612a4f015260006129aa015260006129d4015260006129fe0152614c9c6000f3fe6080604052600436106103a65760003560e01c806380afdea8116101e7578063c01f9e371161010d578063e540d01d116100a0578063f2fde38b1161006f578063f2fde38b14610d06578063f4944c0214610d26578063f8ce560a14610d46578063fea0a00e14610d6857600080fd5b8063e540d01d14610c61578063eb9019d414610c81578063ece40cc114610ca1578063f23a6e6114610cc157600080fd5b8063c6b74a09116100dc578063c6b74a0914610b9d578063ced21f8214610bd1578063dd4e2ba514610be7578063deaaa7cc14610c2d57600080fd5b8063c01f9e3714610b2a578063c1ba4e5914610b4a578063c28bc2fa14610b6a578063c59057e414610b7d57600080fd5b8063934098d311610185578063ab58fb8e11610154578063ab58fb8e14610a78578063b5795eb314610ab0578063b58131b014610ad0578063bc197c8114610ae557600080fd5b8063934098d3146109f55780639a802a6d14610a225780639ab627fb14610a42578063a9a9529414610a5757600080fd5b8063879fed55116101c1578063879fed551461096b5780638da5cb5b1461098b5780638ff262e3146109a957806391ddadf4146109c957600080fd5b806380afdea81461091957806383c076c61461092e57806384b0196e1461094357600080fd5b80634bf5d7e9116102cc5780635f398a141161026a5780637b3c71d3116102395780637b3c71d31461088d5780637b7a91dd146108ad5780637d5e81e2146108c35780637ecebe00146108e357600080fd5b80635f398a141461081857806366e4fd3b14610838578063715018a614610858578063790518871461086d57600080fd5b8063544ffc9c116102a6578063544ffc9c1461073d57806354fd4d501461079257806356781388146107d85780635b8d0e0d146107f857600080fd5b80634bf5d7e9146106ad5780634dd9c0b5146106f3578063529f905e1461072757600080fd5b80632656227d116103445780633932abb1116103135780633932abb1146106015780633e4f49e6146106165780634385963214610643578063452115d61461068d57600080fd5b80632656227d1461054d5780632d63f693146105605780632e7468ee146105ad5780632fe3e261146105cd57600080fd5b8063143489d011610380578063143489d01461043a578063150b7a0214610488578063160cbed7146104fd5780631f79a1e91461051d57600080fd5b806301ffc9a7146103b457806302a251a3146103e957806306fdde031461041857600080fd5b366103af57005b005b600080fd5b3480156103c057600080fd5b506103d46103cf3660046139d1565b610d9c565b60405190151581526020015b60405180910390f35b3480156103f557600080fd5b50600a546601000000000000900463ffffffff165b6040519081526020016103e0565b34801561042457600080fd5b5061042d610e86565b6040516103e09190613a63565b34801561044657600080fd5b50610470610455366004613a76565b6000908152600560205260409020546001600160a01b031690565b6040516001600160a01b0390911681526020016103e0565b34801561049457600080fd5b506104cc6104a3366004613b7c565b7f150b7a0200000000000000000000000000000000000000000000000000000000949350505050565b6040517fffffffff0000000000000000000000000000000000000000000000000000000090911681526020016103e0565b34801561050957600080fd5b5061040a610518366004613d63565b610f18565b34801561052957600080fd5b506103d4610538366004613a76565b600f6020526000908152604090205460ff1681565b61040a61055b366004613d63565b610f71565b34801561056c57600080fd5b5061040a61057b366004613a76565b60009081526005602052604090205474010000000000000000000000000000000000000000900465ffffffffffff1690565b3480156105b957600080fd5b506103ad6105c8366004613e0c565b6110d2565b3480156105d957600080fd5b5061040a7f3e83946653575f9a39005e1545185629e92736b7528ab20ca3816f315424a81181565b34801561060d57600080fd5b5061040a6110ea565b34801561062257600080fd5b50610636610631366004613a76565b6110fd565b6040516103e09190613ea9565b34801561064f57600080fd5b506103d461065e366004613eb7565b60008281526008602090815260408083206001600160a01b038516845260030190915290205460ff1692915050565b34801561069957600080fd5b5061040a6106a8366004613d63565b6112b0565b3480156106b957600080fd5b506040805180820190915260208082527f6d6f64653d626c6f636b74696d657374616d702666726f6d3d64656661756c749082015261042d565b3480156106ff57600080fd5b5061040a7f000000000000000000000000000000000000000000000000000000000000000081565b34801561073357600080fd5b5061040a600c5481565b34801561074957600080fd5b50610777610758366004613a76565b6000908152600860205260409020805460018201546002909201549092565b604080519384526020840192909252908201526060016103e0565b34801561079e57600080fd5b5060408051808201909152600181527f3100000000000000000000000000000000000000000000000000000000000000602082015261042d565b3480156107e457600080fd5b5061040a6107f3366004613ef8565b611338565b34801561080457600080fd5b5061040a610813366004613f6d565b611361565b34801561082457600080fd5b5061040a610833366004614028565b6114d9565b34801561084457600080fd5b506103ad6108533660046140ac565b61152e565b34801561086457600080fd5b506103ad611551565b34801561087957600080fd5b506103ad6108883660046140c7565b611565565b34801561089957600080fd5b5061040a6108a83660046140ef565b611576565b3480156108b957600080fd5b5061040a60105481565b3480156108cf57600080fd5b5061040a6108de366004614149565b6115be565b3480156108ef57600080fd5b5061040a6108fe3660046141fe565b6001600160a01b031660009081526003602052604090205490565b34801561092557600080fd5b5061042d6115ef565b34801561093a57600080fd5b5061042d61167d565b34801561094f57600080fd5b5061095861168a565b6040516103e09796959493929190614257565b34801561097757600080fd5b506103ad6109863660046140c7565b6116ec565b34801561099757600080fd5b506000546001600160a01b0316610470565b3480156109b557600080fd5b5061040a6109c43660046142e1565b6116f4565b3480156109d557600080fd5b506109de6117df565b60405165ffffffffffff90911681526020016103e0565b348015610a0157600080fd5b5061040a610a10366004613a76565b60116020526000908152604090205481565b348015610a2e57600080fd5b5061040a610a3d366004614333565b6117e9565b348015610a4e57600080fd5b5061040a600181565b348015610a6357600080fd5b506103d4610a72366004613a76565b50600090565b348015610a8457600080fd5b5061040a610a93366004613a76565b60009081526005602052604090206001015465ffffffffffff1690565b348015610abc57600080fd5b5061040a610acb36600461438c565b6117f6565b348015610adc57600080fd5b5061040a611803565b348015610af157600080fd5b506104cc610b003660046143aa565b7fbc197c810000000000000000000000000000000000000000000000000000000095945050505050565b348015610b3657600080fd5b5061040a610b45366004613a76565b61180e565b348015610b5657600080fd5b506103ad610b65366004613a76565b611879565b6103ad610b7836600461443e565b6118c6565b348015610b8957600080fd5b5061040a610b98366004613d63565b611946565b348015610ba957600080fd5b506104707f000000000000000000000000000000000000000000000000000000000000000081565b348015610bdd57600080fd5b5061040a600d5481565b348015610bf357600080fd5b506040805180820190915260208082527f737570706f72743d627261766f2671756f72756d3d666f722c6162737461696e9082015261042d565b348015610c3957600080fd5b5061040a7ff2aad550cf55f045cb27e9c559f9889fdfb6e6cdaa032301d6ea397784ae51d781565b348015610c6d57600080fd5b506103ad610c7c3660046140ac565b611980565b348015610c8d57600080fd5b5061040a610c9c366004614482565b611998565b348015610cad57600080fd5b506103ad610cbc366004613a76565b6119c0565b348015610ccd57600080fd5b506104cc610cdc3660046144ae565b7ff23a6e610000000000000000000000000000000000000000000000000000000095945050505050565b348015610d1257600080fd5b506103ad610d213660046141fe565b6119d1565b348015610d3257600080fd5b506103ad610d41366004613e0c565b611a25565b348015610d5257600080fd5b5061040a610d61366004613a76565b5060105490565b348015610d7457600080fd5b5061040a7f000000000000000000000000000000000000000000000000000000000000000081565b60007fffffffff0000000000000000000000000000000000000000000000000000000082167f65455a86000000000000000000000000000000000000000000000000000000001480610e2f57507fffffffff0000000000000000000000000000000000000000000000000000000082167f4e2312e000000000000000000000000000000000000000000000000000000000145b80610e7b57507f01ffc9a7000000000000000000000000000000000000000000000000000000007fffffffff000000000000000000000000000000000000000000000000000000008316145b92915050565b905090565b606060048054610e9590614517565b80601f0160208091040260200160405190810160405280929190818152602001828054610ec190614517565b8015610f0e5780601f10610ee357610100808354040283529160200191610f0e565b820191906000526020600020905b815481529060010190602001808311610ef157829003601f168201915b5050505050905090565b600080610f2786868686611946565b9050610f3c81610f376004611a30565b611a53565b5060006040517f90884a4600000000000000000000000000000000000000000000000000000000815260040160405180910390fd5b600080610f8086868686611946565b9050610fa081610f906005611a30565b610f9a6004611a30565b17611a53565b50600081815260056020526040902080547fff00ffffffffffffffffffffffffffffffffffffffffffffffffffffffffffff167e0100000000000000000000000000000000000000000000000000000000000017905530610ffe3090565b6001600160a01b0316146110885760005b865181101561108657306001600160a01b03168782815181106110345761103461456a565b60200260200101516001600160a01b03160361107e5761107e85828151811061105f5761105f61456a565b6020026020010151805190602001206006611aab90919063ffffffff16565b60010161100f565b505b6110958187878787611b61565b6040518181527f712ae1383f79ac853f8d882153778e0260ef8f03b504e2866e0593e04d2b291f906020015b60405180910390a195945050505050565b6110da611c3b565b6110e5838383611c81565b505050565b6000610e81600a5465ffffffffffff1690565b6000818152600560205260408120805460ff7e0100000000000000000000000000000000000000000000000000000000000082048116917f0100000000000000000000000000000000000000000000000000000000000000900416811561116957506007949350505050565b801561117a57506002949350505050565b60008581526005602052604081205474010000000000000000000000000000000000000000900465ffffffffffff169050806000036111ed576040517f6ad06075000000000000000000000000000000000000000000000000000000008152600481018790526024015b60405180910390fd5b60006111f76117df565b65ffffffffffff169050808210611215575060009695505050505050565b60006112208861180e565b905081811061123757506001979650505050505050565b61124088611d87565b158061126057506000888152600860205260409020805460019091015411155b1561127357506003979650505050505050565b60008881526005602052604090206001015465ffffffffffff166000036112a257506004979650505050505050565b506005979650505050505050565b6000806112bf86868686611946565b90506112cf81610f376000611a30565b506000818152600560205260409020546001600160a01b03163314611322576040517f233d98e30000000000000000000000000000000000000000000000000000000081523360048201526024016111e4565b61132e86868686611dc3565b9695505050505050565b60008033905061135984828560405180602001604052806000815250611ea8565b949350505050565b6000806114448761143e7f3e83946653575f9a39005e1545185629e92736b7528ab20ca3816f315424a8118c8c8c6113b68e6001600160a01b0316600090815260036020526040902080546001810190915590565b8d8d6040516113c6929190614599565b60405180910390208c805190602001206040516020016114239796959493929190968752602087019590955260ff9390931660408601526001600160a01b03919091166060850152608084015260a083015260c082015260e00190565b60405160208183030381529060405280519060200120611ebf565b85611f07565b905080611488576040517f94ab6c070000000000000000000000000000000000000000000000000000000081526001600160a01b03881660048201526024016111e4565b6114cc89888a89898080601f0160208091040260200160405190810160405280939291908181526020018383808284376000920191909152508b9250611f5f915050565b9998505050505050505050565b60008033905061152387828888888080601f0160208091040260200160405190810160405280939291908181526020018383808284376000920191909152508a9250611f5f915050565b979650505050505050565b611536611c3b565b61154581600c54600d54611f6e565b61154e8161211f565b50565b611559611c3b565b61156360006121f1565b565b61156d612259565b61154e816122a7565b60008033905061132e86828787878080601f016020809104026020016040519081016040528093929190818152602001838380828437600092019190915250611ea892505050565b60006115c8611c3b565b6115d485858585612326565b60105460008281526011602052604090205595945050505050565b600b80546115fc90614517565b80601f016020809104026020016040519081016040528092919081815260200182805461162890614517565b80156116755780601f1061164a57610100808354040283529160200191611675565b820191906000526020600020905b81548152906001019060200180831161165857829003601f168201915b505050505081565b600e80546115fc90614517565b60006060806000806000606061169e612415565b6116a6612442565b604080516000808252602082019092527f0f000000000000000000000000000000000000000000000000000000000000009b939a50919850469750309650945092509050565b61156d611c3b565b6000806117808461143e7ff2aad550cf55f045cb27e9c559f9889fdfb6e6cdaa032301d6ea397784ae51d78989896117498b6001600160a01b0316600090815260036020526040902080546001810190915590565b60408051602081019690965285019390935260ff90911660608401526001600160a01b0316608083015260a082015260c001611423565b9050806117c4576040517f94ab6c070000000000000000000000000000000000000000000000000000000081526001600160a01b03851660048201526024016111e4565b61132e86858760405180602001604052806000815250611ea8565b6000610e8161246f565b600061135984848461247a565b6000611359848484612483565b6000610e8160095490565b60008181526005602052604081205461186b907a010000000000000000000000000000000000000000000000000000810463ffffffff169074010000000000000000000000000000000000000000900465ffffffffffff166145d8565b65ffffffffffff1692915050565b611881612259565b601080549082905560408051828152602081018490527fefd756ffab26c83a9c410308c3bce2daf19f87e2dfd240775beafe2d2be6bc0b910160405180910390a15050565b6118ce612259565b600080856001600160a01b03168585856040516118ec929190614599565b60006040518083038185875af1925050503d8060008114611929576040519150601f19603f3d011682016040523d82523d6000602084013e61192e565b606091505b509150915061193d8282612904565b50505050505050565b60008484848460405160200161195f9493929190614692565b60408051601f19818403018152919052805160209091012095945050505050565b61198f81600c54600d54611f6e565b61154e81612920565b60006119b983836119b460408051602081019091526000815290565b61247a565b9392505050565b6119c8612259565b61154e81612928565b6119d9611c3b565b6001600160a01b038116611a1c576040517f1e4fbdf7000000000000000000000000000000000000000000000000000000008152600060048201526024016111e4565b61154e816121f1565b6110e5838383611f6e565b6000816007811115611a4457611a44613e3f565b600160ff919091161b92915050565b600080611a5f846110fd565b9050600083611a6d83611a30565b16036119b9578381846040517f31b75e4d0000000000000000000000000000000000000000000000000000000081526004016111e4939291906146dd565b81546fffffffffffffffffffffffffffffffff700100000000000000000000000000000000820481169181166001830190911603611b15576040517f8acb5f2700000000000000000000000000000000000000000000000000000000815260040160405180910390fd5b6fffffffffffffffffffffffffffffffff808216600090815260018086016020526040909120939093558354919092018216700100000000000000000000000000000000029116179055565b60005b8451811015611c3357600080868381518110611b8257611b8261456a565b60200260200101516001600160a01b0316868481518110611ba557611ba561456a565b6020026020010151868581518110611bbf57611bbf61456a565b6020026020010151604051611bd491906146ff565b60006040518083038185875af1925050503d8060008114611c11576040519150601f19603f3d011682016040523d82523d6000602084013e611c16565b606091505b5091509150611c258282612904565b505050806001019050611b64565b505050505050565b6000546001600160a01b03163314611563576040517f118cdaa70000000000000000000000000000000000000000000000000000000081523360048201526024016111e4565b81811115611cbb576040517f1398e0e000000000000000000000000000000000000000000000000000000000815260040160405180910390fd5b611cc6838383611f6e565b600a546601000000000000900463ffffffff168363ffffffff1614611cee57611cee8361211f565b600c54828114611d3757600c83905560408051828152602081018590527f7639ecf0fefb1c8b5ec6131b472f3d4a936131e642a409d2e92764002c048797910160405180910390a15b600d54828114611d8057600d83905560408051828152602081018590527fc82be8d74b836742b3756abc5d3d2778136237291b3efdf7e1c246a13f49e9ce910160405180910390a15b5050505050565b60008181526008602090815260408083206001810154600290910154601190935290832054909190611db9828461471b565b1015949350505050565b600080611dd286868686611946565b9050611e2081611de26007611a30565b611dec6006611a30565b611df66002611a30565b6001611e0360078261472e565b611e0e906002614867565b611e189190614876565b181818611a53565b506000818152600560205260409081902080547effffffffffffffffffffffffffffffffffffffffffffffffffffffffffffff167f0100000000000000000000000000000000000000000000000000000000000000179055517f789cf55be980739dad1d0699b93b58e806b51c9d96619bfa8fe0a28abaa7b30c906110c19083815260200190565b6000611eb685858585612969565b50949350505050565b6000610e7b611ecc61299d565b836040517f19010000000000000000000000000000000000000000000000000000000000008152600281019290925260228201526042902090565b6000806000611f168585612ac8565b5090925090506000816003811115611f3057611f30613e3f565b148015611f4e5750856001600160a01b0316826001600160a01b0316145b8061132e575061132e868686612b15565b600061132e8686868686612c37565b80156120d7576040517fbbe0d9860000000000000000000000000000000000000000000000000000000081527f000000000000000000000000000000000000000000000000000000000000000060048201526000907f00000000000000000000000000000000000000000000000000000000000000006001600160a01b03169063bbe0d98690602401602060405180830381865afa158015612014573d6000803e3d6000fd5b505050506040513d601f19601f820116820180604052508101906120389190614889565b9050806001600160a01b031663b0d690796040518163ffffffff1660e01b8152600401602060405180830381865afa158015612078573d6000803e3d6000fd5b505050506040513d601f19601f8201168201806040525081019061209c91906148a6565b8211156120d5576040517f1398e0e000000000000000000000000000000000000000000000000000000000815260040160405180910390fd5b505b6120e18183614876565b8363ffffffff16106110e5576040517f541b41b100000000000000000000000000000000000000000000000000000000815260040160405180910390fd5b8063ffffffff16600003612162576040517ff1cfbf05000000000000000000000000000000000000000000000000000000008152600060048201526024016111e4565b600a546040805163ffffffff66010000000000009093048316815291831660208301527f7e3f7f0708a84de9203036abaa450dccc85ad5ff52f78c170f3edb55cf5e8828910160405180910390a1600a805463ffffffff9092166601000000000000027fffffffffffffffffffffffffffffffffffffffffffff00000000ffffffffffff909216919091179055565b600080546001600160a01b038381167fffffffffffffffffffffffff0000000000000000000000000000000000000000831681178455604051919092169283917f8be0079c531659141344cd1fd0a4f28419497f9722a3daafe3b4186f6b6457e09190a35050565b303314611563576040517f47096e470000000000000000000000000000000000000000000000000000000081523360048201526024016111e4565b8061229f6006612c8b565b036122945750565b600a546040805165ffffffffffff928316815291831660208301527fc565b045403dc03c2eea82b81a0465edad9e2e7fc4d97e11421c209da93d7a93910160405180910390a1600a80547fffffffffffffffffffffffffffffffffffffffffffffffffffff0000000000001665ffffffffffff92909216919091179055565b6000336123338184612d50565b612374576040517fd9b395570000000000000000000000000000000000000000000000000000000081526001600160a01b03821660048201526024016111e4565b600061239b8260016123846117df565b61238e91906148bf565b65ffffffffffff16611998565b905060006123a7611803565b9050808210156123fc576040517fc242ee160000000000000000000000000000000000000000000000000000000081526001600160a01b038416600482015260248101839052604481018290526064016111e4565b6124098888888887612e9a565b98975050505050505050565b6060610e817f00000000000000000000000000000000000000000000000000000000000000006001612ea9565b6060610e817f00000000000000000000000000000000000000000000000000000000000000006002612ea9565b6000610e8142612f54565b60006001611359565b6000806000808480602001905181019061249d91906148de565b6000828152600f6020526040902054929550909350915060ff16156124ee576040517fa800026900000000000000000000000000000000000000000000000000000000815260040160405180910390fd5b6040517fbbe0d9860000000000000000000000000000000000000000000000000000000081527f000000000000000000000000000000000000000000000000000000000000000060048201526000907f00000000000000000000000000000000000000000000000000000000000000006001600160a01b03169063bbe0d98690602401602060405180830381865afa15801561258e573d6000803e3d6000fd5b505050506040513d601f19601f820116820180604052508101906125b29190614889565b9050600d5460000361265d57806001600160a01b031663d7b0fef16040518163ffffffff1660e01b8152600401602060405180830381865afa1580156125fc573d6000803e3d6000fd5b505050506040513d601f19601f8201168201806040525081019061262091906148a6565b8414612658576040517f8aaaaaa400000000000000000000000000000000000000000000000000000000815260040160405180910390fd5b6127bb565b6000816001600160a01b031663b0d690796040518163ffffffff1660e01b8152600401602060405180830381865afa15801561269d573d6000803e3d6000fd5b505050506040513d601f19601f820116820180604052508101906126c191906148a6565b9050600081600d54106126d457816126d8565b600d545b6040517ff1c621ee000000000000000000000000000000000000000000000000000000008152600481018890529091506000906001600160a01b0385169063f1c621ee90602401602060405180830381865afa15801561273c573d6000803e3d6000fd5b505050506040513d601f19601f820116820180604052508101906127609190614974565b90506fffffffffffffffffffffffffffffffff811661277f8342614876565b11156127b7576040517f8aaaaaa400000000000000000000000000000000000000000000000000000000815260040160405180910390fd5b5050505b60006127f06127cc8a60ff16612fa4565b6040516020016127dc91906146ff565b604051602081830303815290604052613062565b905060006128327f00000000000000000000000000000000000000000000000000000000000000006128218b612fa4565b6040516020016127dc9291906149a6565b6040517f3bc778e30000000000000000000000000000000000000000000000000000000081529091506001600160a01b037f00000000000000000000000000000000000000000000000000000000000000001690633bc778e3906128c49089907f00000000000000000000000000000000000000000000000000000000000000009087908b9088908c906004016149cc565b600060405180830381600087803b1580156128de57600080fd5b505af11580156128f2573d6000803e3d6000fd5b50969c9b505050505050505050505050565b6060826129195761291482613097565b610e7b565b5080610e7b565b611545612259565b60095460408051918252602082018390527fccb45da8d5717e6c4544694297c4ba5cf151d455c9bb0ed4fc7a38411bc05461910160405180910390a1600955565b60006040517fd4e4d15200000000000000000000000000000000000000000000000000000000815260040160405180910390fd5b6000306001600160a01b037f0000000000000000000000000000000000000000000000000000000000000000161480156129f657507f000000000000000000000000000000000000000000000000000000000000000046145b15612a2057507f000000000000000000000000000000000000000000000000000000000000000090565b610e81604080517f8b73c3c69bb8fe3d512ecc4cf759cc79239f7b179b0ffacaa9a75d522b39400f60208201527f0000000000000000000000000000000000000000000000000000000000000000918101919091527f000000000000000000000000000000000000000000000000000000000000000060608201524660808201523060a082015260009060c00160405160208183030381529060405280519060200120905090565b60008060008351604103612b025760208401516040850151606086015160001a612af4888285856130d9565b955095509550505050612b0e565b50508151600091506002905b9250925092565b6000806000856001600160a01b03168585604051602401612b37929190614a26565b60408051601f198184030181529181526020820180517bffffffffffffffffffffffffffffffffffffffffffffffffffffffff167f1626ba7e0000000000000000000000000000000000000000000000000000000017905251612b9a91906146ff565b600060405180830381855afa9150503d8060008114612bd5576040519150601f19603f3d011682016040523d82523d6000602084013e612bda565b606091505b5091509150818015612bee57506020815110155b801561132e575080517f1626ba7e0000000000000000000000000000000000000000000000000000000090612c2c90830160209081019084016148a6565b149695505050505050565b600080612c45858885612483565b6000818152600f6020526040902080547fffffffffffffffffffffffffffffffffffffffffffffffffffffffffffffff00166001179055905061152387878787876131a8565b80546000906fffffffffffffffffffffffffffffffff808216917001000000000000000000000000000000009004168103612cf2576040517f75e52f4f00000000000000000000000000000000000000000000000000000000815260040160405180910390fd5b6fffffffffffffffffffffffffffffffff8181166000908152600185810160205260408220805492905585547fffffffffffffffffffffffffffffffff00000000000000000000000000000000169301909116919091179092555090565b80516000906034811015612d68576001915050610e7b565b8281017fffffffffffffffffffffffffffffffffffffffffffffffffffffffffffffffec01517fffffffffffffffffffffffff000000000000000000000000000000000000000081167f2370726f706f7365723d3078000000000000000000000000000000000000000014612de257600192505050610e7b565b600080612df0602885614876565b90505b83811015612e7957600080612e3f888481518110612e1357612e1361456a565b01602001517fff00000000000000000000000000000000000000000000000000000000000000166132ab565b9150915081612e575760019650505050505050610e7b565b8060ff166004856001600160a01b0316901b1793505050806001019050612df3565b50856001600160a01b0316816001600160a01b031614935050505092915050565b600061132e8686868686613397565b606060ff8314612ec357612ebc836133cb565b9050610e7b565b818054612ecf90614517565b80601f0160208091040260200160405190810160405280929190818152602001828054612efb90614517565b8015612f485780601f10612f1d57610100808354040283529160200191612f48565b820191906000526020600020905b815481529060010190602001808311612f2b57829003601f168201915b50505050509050610e7b565b600065ffffffffffff821115612fa0576040517f6dfcc65000000000000000000000000000000000000000000000000000000000815260306004820152602481018390526044016111e4565b5090565b60606000612fb18361340a565b600101905060008167ffffffffffffffff811115612fd157612fd1613aa4565b6040519080825280601f01601f191660200182016040528015612ffb576020820181803683370190505b5090508181016020015b7fffffffffffffffffffffffffffffffffffffffffffffffffffffffffffffffff017f3031323334353637383961626364656600000000000000000000000000000000600a86061a8153600a850494508461300557509392505050565b600060088260405160200161307791906146ff565b60408051601f198184030181529190528051602090910120901c92915050565b8051156130a75780518082602001fd5b6040517f1425ea4200000000000000000000000000000000000000000000000000000000815260040160405180910390fd5b600080807f7fffffffffffffffffffffffffffffff5d576e7357a4501ddfe92f46681b20a0841115613114575060009150600390508261319e565b604080516000808252602082018084528a905260ff891692820192909252606081018790526080810186905260019060a0016020604051602081039080840390855afa158015613168573d6000803e3d6000fd5b5050604051601f1901519150506001600160a01b0381166131945750600092506001915082905061319e565b9250600091508190505b9450945094915050565b60006131b886610f376001611a30565b506000868152600560205260408120546131f490879074010000000000000000000000000000000000000000900465ffffffffffff168561247a565b905061320387878784876134ec565b825160000361325857856001600160a01b03167fb8e138887d0aa13bab447e82de9d5c1777041ecd21ca36ba824ff1e6c07ddda48887848860405161324b9493929190614a3f565b60405180910390a261132e565b856001600160a01b03167fe2babfbac5889a709b63bb7f598b324e08bc5a4fb9ec647fb3cbc9ec07eb87128887848888604051613299959493929190614a67565b60405180910390a29695505050505050565b60008060f883901c602f811180156132c65750603a8160ff16105b156132f9576001947fffffffffffffffffffffffffffffffffffffffffffffffffffffffffffffffd09091019350915050565b8060ff16604010801561330f575060478160ff16105b15613342576001947fffffffffffffffffffffffffffffffffffffffffffffffffffffffffffffffc99091019350915050565b8060ff166060108015613358575060678160ff16105b1561338b576001947fffffffffffffffffffffffffffffffffffffffffffffffffffffffffffffffa99091019350915050565b50600093849350915050565b600082600e6040516020016133ad929190614aa1565b604051602081830303815290604052925061132e8686868686613671565b606060006133d883613946565b604080516020808252818301909252919250600091906020820181803683375050509182525060208101929092525090565b6000807a184f03e93ff9f4daa797ed6e38ed64bf6a1f0100000000000000008310613453577a184f03e93ff9f4daa797ed6e38ed64bf6a1f010000000000000000830492506040015b6d04ee2d6d415b85acef8100000000831061347f576d04ee2d6d415b85acef8100000000830492506020015b662386f26fc10000831061349d57662386f26fc10000830492506010015b6305f5e10083106134b5576305f5e100830492506008015b61271083106134c957612710830492506004015b606483106134db576064830492506002015b600a8310610e7b5760010192915050565b60008581526008602090815260408083206001600160a01b0388168452600381019092529091205460ff1615613559576040517f71c6af490000000000000000000000000000000000000000000000000000000081526001600160a01b03861660048201526024016111e4565b6001600160a01b0385166000908152600382016020526040902080547fffffffffffffffffffffffffffffffffffffffffffffffffffffffffffffff0016600117905560ff84166135c357828160000160008282546135b8919061471b565b90915550611c339050565b7fffffffffffffffffffffffffffffffffffffffffffffffffffffffffffffffff60ff85160161360157828160010160008282546135b8919061471b565b7ffffffffffffffffffffffffffffffffffffffffffffffffffffffffffffffffe60ff85160161363f57828160020160008282546135b8919061471b565b6040517f06b337c200000000000000000000000000000000000000000000000000000000815260040160405180910390fd5b60006136868686868680519060200120611946565b90508451865114158061369b57508351865114155b806136a557508551155b156136f3578551845186516040517f447b05d00000000000000000000000000000000000000000000000000000000081526004810193909352602483019190915260448201526064016111e4565b60008181526005602052604090205474010000000000000000000000000000000000000000900465ffffffffffff16156137685780613731826110fd565b6040517f31b75e4d0000000000000000000000000000000000000000000000000000000081526111e49291906000906004016146dd565b60006137726110ea565b61377a6117df565b65ffffffffffff1661378c919061471b565b905060006137aa600a5463ffffffff66010000000000009091041690565b600084815260056020526040902080547fffffffffffffffffffffffff0000000000000000000000000000000000000000166001600160a01b0387161781559091506137f583612f54565b815465ffffffffffff9190911674010000000000000000000000000000000000000000027fffffffffffff000000000000ffffffffffffffffffffffffffffffffffffffff90911617815561384982613987565b815463ffffffff919091167a010000000000000000000000000000000000000000000000000000027fffff00000000ffffffffffffffffffffffffffffffffffffffffffffffffffff90911617815588517f7d84a6263ae0d98d3329bd7b46bb4e8d6f98cd35a7adb45c274c8b7fd5ebd5e090859087908c908c9067ffffffffffffffff8111156138dc576138dc613aa4565b60405190808252806020026020018201604052801561390f57816020015b60608152602001906001900390816138fa5790505b508c8961391c8a8261471b565b8e60405161393299989796959493929190614b8e565b60405180910390a150505095945050505050565b600060ff8216601f811115610e7b576040517fb3512b0c00000000000000000000000000000000000000000000000000000000815260040160405180910390fd5b600063ffffffff821115612fa0576040517f6dfcc65000000000000000000000000000000000000000000000000000000000815260206004820152602481018390526044016111e4565b6000602082840312156139e357600080fd5b81357fffffffff00000000000000000000000000000000000000000000000000000000811681146119b957600080fd5b60005b83811015613a2e578181015183820152602001613a16565b50506000910152565b60008151808452613a4f816020860160208601613a13565b601f01601f19169290920160200192915050565b6020815260006119b96020830184613a37565b600060208284031215613a8857600080fd5b5035919050565b6001600160a01b038116811461154e57600080fd5b7f4e487b7100000000000000000000000000000000000000000000000000000000600052604160045260246000fd5b604051601f8201601f1916810167ffffffffffffffff81118282101715613afc57613afc613aa4565b604052919050565b600067ffffffffffffffff831115613b1e57613b1e613aa4565b613b316020601f19601f86011601613ad3565b9050828152838383011115613b4557600080fd5b828260208301376000602084830101529392505050565b600082601f830112613b6d57600080fd5b6119b983833560208501613b04565b60008060008060808587031215613b9257600080fd5b8435613b9d81613a8f565b93506020850135613bad81613a8f565b925060408501359150606085013567ffffffffffffffff811115613bd057600080fd5b613bdc87828801613b5c565b91505092959194509250565b600067ffffffffffffffff821115613c0257613c02613aa4565b5060051b60200190565b600082601f830112613c1d57600080fd5b81356020613c32613c2d83613be8565b613ad3565b8083825260208201915060208460051b870101935086841115613c5457600080fd5b602086015b84811015613c79578035613c6c81613a8f565b8352918301918301613c59565b509695505050505050565b600082601f830112613c9557600080fd5b81356020613ca5613c2d83613be8565b8083825260208201915060208460051b870101935086841115613cc757600080fd5b602086015b84811015613c795780358352918301918301613ccc565b600082601f830112613cf457600080fd5b81356020613d04613c2d83613be8565b82815260059290921b84018101918181019086841115613d2357600080fd5b8286015b84811015613c7957803567ffffffffffffffff811115613d475760008081fd5b613d558986838b0101613b5c565b845250918301918301613d27565b60008060008060808587031215613d7957600080fd5b843567ffffffffffffffff80821115613d9157600080fd5b613d9d88838901613c0c565b95506020870135915080821115613db357600080fd5b613dbf88838901613c84565b94506040870135915080821115613dd557600080fd5b50613de287828801613ce3565b949793965093946060013593505050565b803563ffffffff81168114613e0757600080fd5b919050565b600080600060608486031215613e2157600080fd5b613e2a84613df3565b95602085013595506040909401359392505050565b7f4e487b7100000000000000000000000000000000000000000000000000000000600052602160045260246000fd5b60088110613ea5577f4e487b7100000000000000000000000000000000000000000000000000000000600052602160045260246000fd5b9052565b60208101610e7b8284613e6e565b60008060408385031215613eca57600080fd5b823591506020830135613edc81613a8f565b809150509250929050565b803560ff81168114613e0757600080fd5b60008060408385031215613f0b57600080fd5b82359150613f1b60208401613ee7565b90509250929050565b60008083601f840112613f3657600080fd5b50813567ffffffffffffffff811115613f4e57600080fd5b602083019150836020828501011115613f6657600080fd5b9250929050565b600080600080600080600060c0888a031215613f8857600080fd5b87359650613f9860208901613ee7565b95506040880135613fa881613a8f565b9450606088013567ffffffffffffffff80821115613fc557600080fd5b613fd18b838c01613f24565b909650945060808a0135915080821115613fea57600080fd5b613ff68b838c01613b5c565b935060a08a013591508082111561400c57600080fd5b506140198a828b01613b5c565b91505092959891949750929550565b60008060008060006080868803121561404057600080fd5b8535945061405060208701613ee7565b9350604086013567ffffffffffffffff8082111561406d57600080fd5b61407989838a01613f24565b9095509350606088013591508082111561409257600080fd5b5061409f88828901613b5c565b9150509295509295909350565b6000602082840312156140be57600080fd5b6119b982613df3565b6000602082840312156140d957600080fd5b813565ffffffffffff811681146119b957600080fd5b6000806000806060858703121561410557600080fd5b8435935061411560208601613ee7565b9250604085013567ffffffffffffffff81111561413157600080fd5b61413d87828801613f24565b95989497509550505050565b6000806000806080858703121561415f57600080fd5b843567ffffffffffffffff8082111561417757600080fd5b61418388838901613c0c565b9550602087013591508082111561419957600080fd5b6141a588838901613c84565b945060408701359150808211156141bb57600080fd5b6141c788838901613ce3565b935060608701359150808211156141dd57600080fd5b508501601f810187136141ef57600080fd5b613bdc87823560208401613b04565b60006020828403121561421057600080fd5b81356119b981613a8f565b60008151808452602080850194506020840160005b8381101561424c57815187529582019590820190600101614230565b509495945050505050565b7fff000000000000000000000000000000000000000000000000000000000000008816815260e06020820152600061429260e0830189613a37565b82810360408401526142a48189613a37565b90508660608401526001600160a01b03861660808401528460a084015282810360c08401526142d3818561421b565b9a9950505050505050505050565b600080600080608085870312156142f757600080fd5b8435935061430760208601613ee7565b9250604085013561431781613a8f565b9150606085013567ffffffffffffffff811115613bd057600080fd5b60008060006060848603121561434857600080fd5b833561435381613a8f565b925060208401359150604084013567ffffffffffffffff81111561437657600080fd5b61438286828701613b5c565b9150509250925092565b6000806000606084860312156143a157600080fd5b61435384613ee7565b600080600080600060a086880312156143c257600080fd5b85356143cd81613a8f565b945060208601356143dd81613a8f565b9350604086013567ffffffffffffffff808211156143fa57600080fd5b61440689838a01613c84565b9450606088013591508082111561441c57600080fd5b61442889838a01613c84565b9350608088013591508082111561409257600080fd5b6000806000806060858703121561445457600080fd5b843561445f81613a8f565b935060208501359250604085013567ffffffffffffffff81111561413157600080fd5b6000806040838503121561449557600080fd5b82356144a081613a8f565b946020939093013593505050565b600080600080600060a086880312156144c657600080fd5b85356144d181613a8f565b945060208601356144e181613a8f565b93506040860135925060608601359150608086013567ffffffffffffffff81111561450b57600080fd5b61409f88828901613b5c565b600181811c9082168061452b57607f821691505b602082108103614564577f4e487b7100000000000000000000000000000000000000000000000000000000600052602260045260246000fd5b50919050565b7f4e487b7100000000000000000000000000000000000000000000000000000000600052603260045260246000fd5b8183823760009101908152919050565b7f4e487b7100000000000000000000000000000000000000000000000000000000600052601160045260246000fd5b65ffffffffffff8181168382160190808211156145f7576145f76145a9565b5092915050565b60008151808452602080850194506020840160005b8381101561424c5781516001600160a01b031687529582019590820190600101614613565b60008282518085526020808601955060208260051b8401016020860160005b8481101561468557601f19868403018952614673838351613a37565b98840198925090830190600101614657565b5090979650505050505050565b6080815260006146a560808301876145fe565b82810360208401526146b7818761421b565b905082810360408401526146cb8186614638565b91505082606083015295945050505050565b838152606081016146f16020830185613e6e565b826040830152949350505050565b60008251614711818460208701613a13565b9190910192915050565b80820180821115610e7b57610e7b6145a9565b60ff8181168382160190811115610e7b57610e7b6145a9565b600181815b808511156147a057817fffffffffffffffffffffffffffffffffffffffffffffffffffffffffffffffff04821115614786576147866145a9565b8085161561479357918102915b93841c939080029061474c565b509250929050565b6000826147b757506001610e7b565b816147c457506000610e7b565b81600181146147da57600281146147e457614800565b6001915050610e7b565b60ff8411156147f5576147f56145a9565b50506001821b610e7b565b5060208310610133831016604e8410600b8410161715614823575081810a610e7b565b61482d8383614747565b807fffffffffffffffffffffffffffffffffffffffffffffffffffffffffffffffff0482111561485f5761485f6145a9565b029392505050565b60006119b960ff8416836147a8565b81810381811115610e7b57610e7b6145a9565b60006020828403121561489b57600080fd5b81516119b981613a8f565b6000602082840312156148b857600080fd5b5051919050565b65ffffffffffff8281168282160390808211156145f7576145f76145a9565b60008060006101408085870312156148f557600080fd5b84519350602080860151935086605f87011261491057600080fd5b604051610100810181811067ffffffffffffffff8211171561493457614934613aa4565b60405291860191808884111561494957600080fd5b604088015b84811015614965578051825290830190830161494e565b50508093505050509250925092565b60006020828403121561498657600080fd5b81516fffffffffffffffffffffffffffffffff811681146119b957600080fd5b828152600082516149be816020850160208701613a13565b919091016020019392505050565b60006101a082019050878252602087602084015286604084015285606084015284608084015260a083018460005b6008811015614a17578151835291830191908301906001016149fa565b50505050979650505050505050565b8281526040602082015260006113596040830184613a37565b84815260ff8416602082015282604082015260806060820152600061132e6080830184613a37565b85815260ff8516602082015283604082015260a060608201526000614a8f60a0830185613a37565b82810360808401526124098185613a37565b600083516020614ab5828560208901613a13565b845491840191600090600181811c9080831680614ad357607f831692505b602083108103614b0a577f4e487b710000000000000000000000000000000000000000000000000000000085526022600452602485fd5b808015614b1e5760018114614b5157614b7e565b7fffffffffffffffffffffffffffffffffffffffffffffffffffffffffffffff0085168852831515840288019550614b7e565b60008b81526020902060005b85811015614b765781548a820152908401908801614b5d565b505083880195505b50939a9950505050505050505050565b60006101208b835260206001600160a01b038c1681850152816040850152614bb88285018c6145fe565b91508382036060850152614bcc828b61421b565b915083820360808501528189518084528284019150828160051b850101838c0160005b83811015614c1d57601f19878403018552614c0b838351613a37565b94860194925090850190600101614bef565b505086810360a0880152614c31818c614638565b9450505050508560c08401528460e0840152828103610100840152614c568185613a37565b9c9b50505050505050505050505056fea2646970667358221220a6100520301dbdc0e75baa0692f134032c8cbc54504c1ac7e6dee59089209daf64736f6c63430008170033","linkReferences":{}},"methodIdentifiers":{"APP_ID_HASH()":"fea0a00e","BALLOT_TYPEHASH()":"deaaa7cc","CLOCK_MODE()":"4bf5d7e9","COUNTING_MODE()":"dd4e2ba5","EXTENDED_BALLOT_TYPEHASH()":"2fe3e261","GROUP_ID()":"4dd9c0b5","ONE_VOTE()":"9ab627fb","WORLD_ID_ROUTER()":"c6b74a09","appId()":"80afdea8","cancel(address[],uint256[],bytes[],bytes32)":"452115d6","castVote(uint256,uint8)":"56781388","castVoteBySig(uint256,uint8,address,bytes)":"8ff262e3","castVoteWithReason(uint256,uint8,string)":"7b3c71d3","castVoteWithReasonAndParams(uint256,uint8,string,bytes)":"5f398a14","castVoteWithReasonAndParamsBySig(uint256,uint8,address,string,bytes,bytes)":"5b8d0e0d","checkConfigValidity(uint32,uint256,uint256)":"f4944c02","checkVoteValidity(uint8,uint256,bytes)":"b5795eb3","clock()":"91ddadf4","eip712Domain()":"84b0196e","execute(address[],uint256[],bytes[],bytes32)":"2656227d","getVotes(address,uint256)":"eb9019d4","getVotesWithParams(address,uint256,bytes)":"9a802a6d","hasVoted(uint256,address)":"43859632","hashProposal(address[],uint256[],bytes[],bytes32)":"c59057e4","name()":"06fdde03","nonces(address)":"7ecebe00","nullifierHashes(uint256)":"1f79a1e9","onERC1155BatchReceived(address,address,uint256[],uint256[],bytes)":"bc197c81","onERC1155Received(address,address,uint256,uint256,bytes)":"f23a6e61","onERC721Received(address,address,uint256,bytes)":"150b7a02","owner()":"8da5cb5b","proposalDeadline(uint256)":"c01f9e37","proposalEta(uint256)":"ab58fb8e","proposalNeedsQueuing(uint256)":"a9a95294","proposalProposer(uint256)":"143489d0","proposalSnapshot(uint256)":"2d63f693","proposalThreshold()":"b58131b0","proposalUniquenessSalt()":"83c076c6","proposalVotes(uint256)":"544ffc9c","proposalsQuorumThreshold(uint256)":"934098d3","propose(address[],uint256[],bytes[],string)":"7d5e81e2","queue(address[],uint256[],bytes[],bytes32)":"160cbed7","quorum(uint256)":"f8ce560a","quorumThreshold()":"7b7a91dd","relay(address,uint256,bytes)":"c28bc2fa","renounceOwnership()":"715018a6","resetGracePeriod()":"529f905e","rootExpirationThreshold()":"ced21f82","setConfig(uint32,uint256,uint256)":"2e7468ee","setProposalThreshold(uint256)":"ece40cc1","setQuorum(uint256)":"c1ba4e59","setVotingDelay(uint48)":"79051887","setVotingDelayOwner(uint48)":"879fed55","setVotingPeriod(uint32)":"e540d01d","setVotingPeriodOwner(uint32)":"66e4fd3b","state(uint256)":"3e4f49e6","supportsInterface(bytes4)":"01ffc9a7","transferOwnership(address)":"f2fde38b","version()":"54fd4d50","votingDelay()":"3932abb1","votingPeriod()":"02a251a3"},"id":52}